S0120000507261637469636131302E737265638A
S11300001BC1000049C1000047C1000045C10000F8
S113001043C1000041C100003FC100003DC10000D8
S11300203BC1000039C1000037C1000035C10000E8
S113003033C1000031C100002FC100002DC10000F8
S11300402BC1000029C1000027C1000025C1000008
S1130050CFC2000021C100001FC100003FC7000043
S11300601BC1000049C600007DC6000015C1000088
S113007013C1000011C100000FC100000DC1000038
S11300800BC1000009C1000007C1000005C1000048
S113009003C1000001C10000FFC00000FDC000005A
S11300A0FBC00000F9C00000F7C00000F5C000006C
S11300B0F3C00000F1C00000EFC00000EDC000007C
S11300C0EBC00000E9C00000E7C00000E5C000008C
S11300D0E3C00000E1C00000DFC00000DDC000009C
S11300E0DBC0000065086A086F0879088308FC080B
S11300F08D0895089D08A708B108BB08CA08D4084C
S1130100FC08DE08E808F2081F092209110915098C
S11301101B09590926092A093009340938093E09F5
S11301204209460959094C095009540900000A0BAF
S113013002090C0D0E080703040100000000000072
S113014000000000000000000000000000000000AB
S11301500000000000000000121110000000000068
S1130160000000000000000000000000000000008B
S113017000000102102020080810204010204080B8
S11301800201020108040201010204081020408057
S113019080402010080402018004020180402010E5
S11301A0080402010804020101020408102040802E
S11301B0010204081020408005050505070508080C
S11301C00808020202020A0A0808040404040101DD
S11301D001010101010103030303030303030407F2
S11301E007070C0C0C0C0C0C0C0C02020202060689
S11301F00606060606060B0B0B0B0B0B0B0B00007F
S11302002200250028002B002E00310034000201BA
S11302100000050108010B01000021002400270053
S11302202A002D0030003300010100000401070101
S11302300A018402E406890211241FBECFEFD1E231
S1130240DEBFCDBF00E00CBF12E0A0E0B2E0EAE602
S1130250F4E200E00BBF02C007900D92AE38B10784
S1130260D9F723E0AEE8B2E001C01D92AA37B20785
S1130270E1F711E0CBE1D1E000E006C021970109EC
S1130280802FFE010E94A80CC931D10780E0080725
S1130290A9F7C8D50C942412B3CE80919002909102
S11302A091020196909391028093900280918E0224
S11302B090918F02019690938F0280938E020895FD
S11302C0CF93C3E080E80FB6F89480936100C093A5
S11302D061000FBE26E040E05CE261E070E080ED8A
S11302E092E0A7D48FEF81B912B868E770E083E990
S11302F092E00E94F509E1E8F0E080E18083109249
S11303008000C093CD0289E09DE39093CF02809357
S1130310CE02909387008093860083E180838DE4EE
S113032091E09093CC028093CB0281E080936F00A4
S1130330279A67E072E080ED92E0CF91BFC587E332
S113034079D6BC01990F880B990B7DD220E030E05F
S113035040EA50E404D320E030EC4FE754E4D8D131
S11303602DEC3CEC4CEC5EE36ED12AE037ED43EA35
S11303705CE3CED135D2CB0108951F93CF93DF93A5
S1130380CDB7DEB72C970FB6F894DEBF0FBECDBF46
S113039083E992E00E94230C6DE072E083E992E02D
S11303A00E94960A882321F092B181E0892782B9BC
S11303B068E172E083E992E00E94960A882321F0C2
S11303C092B182E0892782B960E272E083E992E027
S11303D00E94960A882321F092B184E0892782B989
S11303E06AE272E083E992E00E94960A882321F08F
S11303F092B188E0892782B964E372E0CE01019664
S11304000E942E0ABE016F5F7F4F83E992E00E9433
S1130410D90A182FCE010196B7D7112331F161E81B
S113042072E0CE0101960E942E0A64E372E0CE01CE
S113043007960E942E0AAE014F5F5F4FBE01695FAF
S11304407F4F83E992E00E94340BCE0107969CD73C
S1130450CE01019699D783E992E00E94230C83E9A7
S113046092E00E947C0C8DE00AD661E872E083E998
S113047092E00E94420A109292022C960FB6F894CF
S1130480DEBF0FBECDBFDF91CF911F910895CF92F4
S1130490DF92EF92FF9286E3CDD5BC01990F880BD2
S11304A0990BD1D120E030E040EA50E458D220E06A
S11304B030EC4FE754E42CD120E030E040E751E445
S11304C04ED220E030E040EA50E449D289D1072EF0
S11304D0000C880B990BB7D16B017C012DEC3CEC23
S11304E04CEC5DE33CD29B01AC01C701B601ABD03F
S11304F020E030E040E85FE3A7D072D1CB01FF9069
S1130500EF90DF90CF90089561E872E083E992E084
S1130510A5C783E992E038C78091920281112DDF4B
S113052080918E0290918F0203970CF180ED92E0FE
S1130530A7D2892BC1F0ABDF9F938F9380E492E025
S11305409F938F9389E992E09F938F930E94460F24
S113055069E972E080ED92E0B1D40F900F900F90B2
S11305600F900F900F9010928F0210928E02809134
S113057090029091910204970CF180ED92E080D268
S1130580892BC1F0DCDE9F938F9384E592E09F93E7
S11305908F9389E992E09F938F930E94460F69E9B4
S11305A072E080ED92E08AD40F900F900F900F903C
S11305B00F900F9010929102109290028FE097E2A8
S11305C00197F1F700C00000089580ED92E02AD26F
S11305D0892B69F080ED92E03FD28A3021F481E0EA
S11305E0809392020895682F83E992E08CC708955E
S11305F01F920F920FB60F9211240BB60F922F93E6
S11306003F934F935F936F937F938F939F93AF9396
S1130610BF93EF93FF93E091CB02F091CC02199535
S1130620FF91EF91BF91AF919F918F917F916F91C6
S11306305F914F913F912F910F900BBE0F900FBE82
S11306400F901F9018955058BB27AA270ED04DC164
S11306503ED130F043D120F031F49F3F11F41EF429
S113066033C10EF4E095E7FB29C1E92F4FD180F3A4
S1130670BA17620773078407950718F071F49EF59B
S113068067C10EF4E0950B2EBA2FA02D0B01B90112
S113069090010C01CA01A0011124FF27591B99F0F4
S11306A0593F50F4503E68F11A16F040A22F232F00
S11306B0342F4427585FF3CF469537952795A79550
S11306C0F0405395C9F77EF41F16BA0B620B730BF7
S11306D0840BBAF09150A1F0FF0FBB1F661F771F68
S11306E0881FC2F70EC0BA0F621F731F841F48F41D
S11306F0879577956795B795F7959E3F08F0B3CFA3
S11307009395880F08F09927EE0F9795879508958C
S11307100CD0EBC0E3D040F0DAD030F021F45F3FEE
S113072019F0CCC0511115C1CFC0F0D098F3992362
S1130730C9F35523B1F3951B550BBB27AA276217A1
S11307407307840738F09F5F5F4F220F331F441FE6
S1130750AA1FA9F333D00E2E3AF0E0E830D091501E
S11307605040E695001CCAF729D0FE2F27D0660F0B
S1130770771F881FBB1F261737074807AB07B0E84A
S113078009F0BB0B802DBF01FF2793585F4F2AF060
S11307909E3F510568F092C0DCC05F3FECF3983E89
S11307A0DCF3869577956795B795F7959F5FC9F7BD
S11307B0880F911D9695879597F90895E1E0660F46
S11307C0771F881FBB1F621773078407BA0720F0BF
S11307D0621B730B840BBA0BEE1F88F7E095089528
S11307E004D06894B111B5C0089598D088F09F578B
S11307F090F0B92F9927B751A0F0D1F0660F771F69
S1130800881F991F1AF0BA95C9F712C0B13081F048
S11308109FD0B1E008959CC0672F782F8827B85FD8
S113082039F0B93FCCF3869577956795B395D9F7A9
S11308303EF490958095709561957F4F8F4F9F4FB3
S11308400895E89409C097FB3EF4909580957095BF
S113085061957F4F8F4F9F4F9923A9F0F92F96E908
S1130860BB279395F695879577956795B795F1117D
S1130870F8CFFAF4BB0F11F460FF1BC06F5F7F4F1A
S11308808F4F9F4F16C0882311F096E911C077232C
S113089021F09EE8872F762F05C0662371F096E835
S11308A0862F70E060E02AF09A95660F771F881F04
S11308B0DAF7880F9695879597F9089597F99F67C2
S11308C080E870E060E008959FEF80EC08950024D4
S11308D00A941616170618060906089500240A94A1
S11308E012161306140605060895092E0394000C27
S11308F011F4882352F0BB0F40F4BF2B11F460FFB6
S113090004C06F5F7F4F8F4F9F4F089557FD9058DE
S1130910440F551F59F05F3F71F04795880F97FBBF
S1130920991F61F09F3F79F0879508951216130679
S11309301406551FF2CF4695F1DF08C016161706A8
S11309401806991FF1CF86957105610508940895DD
S1130950E894BB2766277727CB0197F908950BD036
S1130960C4CFB5DF28F0BADF18F0952309F0A6CF7D
S1130970ABCF1124EECFCADFA0F3959FD1F3950F2F
S113098050E0551F629FF001729FBB27F00DB11D0F
S1130990639FAA27F00DB11DAA1F649F6627B00D9F
S11309A0A11D661F829F2227B00DA11D621F739F88
S11309B0B00DA11D621F839FA00D611D221F749F96
S11309C03327A00D611D231F849F600D211D822FDD
S11309D0762F6A2F11249F5750408AF0E1F0882324
S11309E04AF0EE0FFF1FBB1F661F771F881F915031
S11309F05040A9F79E3F510570F060CFAACF5F3FEA
S1130A00ECF3983EDCF3869577956795B795F79563
S1130A10E7959F5FC1F7FE2B880F911D96958795EB
S1130A2097F90895FC01918D228D892F90E0805CC7
S1130A309F4F821B91098F7399270895FC01918D13
S1130A40828D981731F0828DE80FF11D858D90E02D
S1130A5008958FEF9FEF0895FC01918D828D981773
S1130A6061F0828DDF01A80FB11D5D968C91928D8E
S1130A709F5F9F73928F90E008958FEF9FEF08958B
S1130A80FC01538D448D252F30E0842F90E0821B90
S1130A90930B541710F0CF960895019708958BED9A
S1130AA096E0892B39F085EE92E0892B19F083D1F9
S1130AB0811125C080E090E0892B41F080E090E036
S1130AC0892B21F00E94000081111BC080E090E07E
S1130AD0892B41F080E090E0892B21F00E940000F6
S1130AE0811112C080E090E0892B99F080E090E0C1
S1130AF0892B79F00E940000811109C0089565DDF9
S1130B00D9CF0E940000E2CF0E940000EBCF0C94EA
S1130B1000000895FC01848DDF01A80FB11DA35AC4
S1130B20BF4F2C91848D90E001968F739927848F09
S1130B30A689B7892C93A089B1898C91837080642C
S1130B408C93938D848D981306C00288F389E02DCD
S1130B5080818F7D80830895EF92FF920F931F937E
S1130B60CF93DF93EC0181E0888F9B8D8C8D98135C
S1130B7005C0E889F989808185FD25C0F62E0B8D95
S1130B8010E00F5F1F4F0F731127E02E8C8DE812BA
S1130B900BC00FB607FCFACFE889F989808185FF7D
S1130BA0F5CFCE01B7DFF2CF8B8DFE01E80FF11D3B
S1130BB0E35AFF4FF0829FB7F8940B8FEA89FB89C1
S1130BC0808180620AC09FB7F894EE89FF896083B0
S1130BD0E889F98980818370806480839FBF81E084
S1130BE090E0DF91CF911F910F91FF90EF900895C6
S1130BF0CF93DF93EC01888D8823C1F0EA89FB89C8
S1130C00808185FD05C0A889B9898C9186FD0EC0B7
S1130C100FB607FCF5CF808185FFF2CFA889B9898B
S1130C208C9185FFEDCFCE0175DFE8CFDF91CF91B9
S1130C300895CF92DF92EF92FF921F93CF93DF93A9
S1130C40EC016A017B01122FE889F98982E0808333
S1130C504115514E61057105A9F060E079E08DE31D
S1130C6090E0A701960152D6DA01C9010197A109C2
S1130C70B109B695A795979587959C01211580E1B3
S1130C803807A0F0E889F989108260E874E88EE1F9
S1130C9090E0A70196013AD6DA01C9010197A109AA
S1130CA0B109B695A795979587959C01EC85FD8527
S1130CB03083EE85FF852083188EEC89FD891083AF
S1130CC0EA89FB89808180618083EA89FB8980814C
S1130CD088608083EA89FB89808180688083EA89CF
S1130CE0FB8980818F7D8083DF91CF911F91FF905D
S1130CF0EF90DF90CF9008951F920F920FB60F924E
S1130D0011240BB60F922F938F939F93EF93FF931E
S1130D10E091E002F091E1028081E091E602F0913D
S1130D20E70282FD12C090818091E9028F5F8F7388
S1130D302091EA02821751F0E091E902F0E0E053D9
S1130D40FD4F958F8093E90201C08081FF91EF915F
S1130D509F918F912F910F900BBE0F900FBE0F900C
S1130D601F9018951F920F920FB60F9211240BB675
S1130D700F922F933F934F935F936F937F938F9330
S1130D809F93AF93BF93EF93FF9380ED92E0C2DE06
S1130D90FF91EF91BF91AF919F918F917F916F914F
S1130DA05F914F913F912F910F900BBE0F900FBE0B
S1130DB00F901F90189580ED92E034DE21E0892B8E
S1130DC009F420E0822F0895E0EDF2E0138212820C
S1130DD088EE93E0A0E0B0E084839583A683B78394
S1130DE081E792E09183808385EC90E09587848706
S1130DF084EC90E09787868780EC90E0918B808BE1
S1130E0081EC90E0938B828B82EC90E0958B848BC9
S1130E1086EC90E0978B868B118E128E138E148E37
S1130E2008950895A5D0FDDF4BDACFE4D5E074DB57
S1130E302097E9F334DEFBCFCF92DF92EF92FF925B
S1130E400F931F93CF93DF936C017A018B01C0E062
S1130E50D0E0CE15DF0581F0D8016D918D01D6016A
S1130E60ED91FC910190F081E02DC6011995892B3B
S1130E7011F02196EECF7E01C701DF91CF911F9132
S1130E800F91FF90EF90DF90CF9008956115710559
S1130E9079F0FB0101900020E9F73197AF01461B7F
S1130EA0570BDC01ED91FC910280F381E02D199444
S1130EB080E090E008956FE772E0E8CF0F931F930E
S1130EC0CF93DF93EC01E2DF8C01CE01F4DF800FDE
S1130ED0911FDF91CF911F910F9108951F920F924F
S1130EE00FB60F9211242F933F938F939F93AF9339
S1130EF0BF9380916E0390916F03A0917003B091A2
S1130F00710330916D0323E0230F2D3720F40196F4
S1130F10A11DB11D05C026E8230F0296A11DB11D18
S1130F2020936D0380936E0390936F03A0937003DB
S1130F30B09371038091720390917303A091740331
S1130F40B09175030196A11DB11D80937203909316
S1130F507303A0937403B0937503BF91AF919F91F2
S1130F608F913F912F910F900FBE0F901F90189566
S1130F70789484B5826084BD84B5816084BD85B570
S1130F80826085BD85B5816085BDEEE6F0E0808137
S1130F9081608083E1E8F0E0108280818260808358
S1130FA0808181608083E0E8F0E0808181608083DB
S1130FB0E1EBF0E0808184608083E0EBF0E080810D
S1130FC081608083E1E9F0E08081826080838081B8
S1130FD081608083E0E9F0E0808181608083E1EAE0
S1130FE0F0E0808182608083808181608083E0EA98
S1130FF0F0E0808181608083E1E2F1E080818260C1
S11310008083808181608083E0E2F1E0808181607F
S11310108083EAE7F0E0808184608083808182605D
S11310208083808181608083808180688083109246
S1131030C1000895863308F0865390917B00282FD1
S11310402870977F922B90937B002091060290E466
S1131050299F900111248770822B80937C008091BA
S11310607A00806480937A0080917A0086FDFCCFB8
S1131070809178002091790090E0922B08951F933D
S1131080CF93DF93182FEB0161E014D1209711F473
S113109060E004C0CF3FD10531F461E0812FDF91DE
S11310A0CF911F9143C1E12FF0E0E45DFE4FE49145
S11310B08E2F90E0FC013197E231F10508F09CC0DD
S11310C08827EE58FF4F8F4F43C484B5806884BD92
S11310D0C7BD97C084B5806284BDC8BD92C08091ED
S11310E08000806880938000D0938900C09388003A
S11310F088C080918000806280938000D0938B00B0
S1131100C0938A007EC080918000886080938000B4
S1131110D0938D00C0938C0074C08091B00080681F
S11311208093B000C093B3006CC08091B000806223
S11311308093B000C093B40064C080919000806834
S113114080939000D0939900C09398005AC08091E6
S11311509000806280939000D0939B00C0939A008B
S113116050C080919000886080939000D0939D003F
S1131170C0939C0046C08091A00080688093A0002A
S11311808091A0008F7B8093A000D093A900C0938E
S1131190A80037C08091A00080628093A000D09303
S11311A0AB00C093AA002DC08091A00088608093FA
S11311B0A000D093AD00C093AC0023C08091200167
S11311C0806880932001D0932901C093280119C01D
S11311D080912001806280932001D0932B01C093E1
S11311E02A010FC080912001886080932001D09350
S11311F02D01C0932C0105C0C038D1050CF04DCF92
S113120047CFDF91CF911F91089590E0FC01319772
S1131210E231F10508F04DC08827EC57FF4F8F4F9E
S113122097C3809180008F7703C0809180008F7D69
S113123080938000089580918000877FF9CF84B5E2
S11312408F7702C084B58F7D84BD08958091B000EE
S11312508F7703C08091B0008F7D8093B000089594
S1131260809190008F7707C0809190008F7D03C09C
S113127080919000877F8093900008958091A000D2
S11312808F7707C08091A0008F7D03C08091A0005C
S1131290877F8093A0000895809120018F7707C0F5
S11312A0809120018F7D03C080912001877F8093EE
S11312B020010895CF93DF9390E0FC01EE58FE4F98
S11312C02491FC01E854FE4F8491882361F190E05D
S11312D0880F991FFC01E85EFD4FC591D491FC0174
S11312E0E250FE4FA591B491611109C09FB7F894E3
S11312F08881209582238883EC912E230BC0623051
S113130061F49FB7F8948881322F309583238883C2
S1131310EC912E2B2C939FBF06C08FB7F894E881D5
S11313202E2B28838FBFDF91CF9108951F93CF93E6
S1131330DF93282F30E0F901E45DFE4F8491F90139
S1131340EE58FE4FD491F901E854FE4FC491CC23DA
S1131350B9F0162F811159DFEC2FF0E0EE0FFF1FCB
S1131360E250FE4FA591B4919FB7F894111104C0B7
S11313708C91D095D82302C0EC91DE2BDC939FBFD7
S1131380DF91CF911F910895FC0180819181009795
S113139009F07EC30895CF93DF93EC01888199818E
S11313A0009709F075D3198218821D821C821B8252
S11313B01A82DF91CF9108950F931F93CF93DF93F8
S11313C0EC018B016F5F7F4F88819981EAD300978D
S11313D031F0998388831B830A8381E001C080E014
S11313E0DF91CF911F910F910895CF93DF93EC017B
S11313F088819981892B29F08A819B818617970797
S113140058F4CE01D9DF882341F08C819D81892B4A
S113141019F4E881F981108281E0DF91CF91089578
S1131420EF92FF920F931F93CF93DF93EC017B0115
S11314308A01BA01DADF811103C0CE01ACDF06C034
S11314401D830C83B70188819981DCD4CE01DF919F
S1131450CF911F910F91FF90EF900895FC0111829D
S1131460108213821282158214826115710549F06B
S1131470FB0101900020E9F73197AF01461B570BA0
S1131480CFCF0895CF93DF93EC016115710551F02F
S1131490FB0101900020E9F73197AF01461B570B80
S11314A0BFDF01C078DFCE01DF91CF910895EF92C5
S11314B0FF920F931F93CF93DF936115710511F47E
S11314C080E01AC041155105B1F07B01EC018C811B
S11314D09D818A01080F191FB801CE0186DF882378
S11314E079F3288139818C819D81B701820F931F03
S11314F089D41D830C8381E0DF91CF911F910F91DB
S1131500FF90EF900895CF93DF931F921F92CDB772
S1131510DEB769831A8241E050E0BE016F5F7F4FFE
S1131520C6DF0F900F90DF91CF910895FC012481C5
S11315303581232B31F421E06115710599F0FB010C
S113154008C0FC01808191816115710531F421E0AD
S1131550FC018081882331F004C04BD421E0892B25
S113156009F020E0822F0895DB011496ED91FC919F
S11315701597DC0114962D913C9115972E1B3F0B6A
S11315802417350798F02D913C912115310571F000
S1131590DB016D917C916115710541F0CA01AF01C8
S11315A0820F931F36D421E0892B09F020E0822F8B
S11315B00895FC0144815581FB0124813581421742
S11315C0530718F040E050E0CFCF80E00895AF9289
S11315D0BF92CF92DF92EF92FF920F931F93CF931C
S11315E0DF937B018A01FB0144815581411551053B
S11315F059F1FC01248135812115310529F1241784
S1131600350710F10217130718F089010150110969
S1131610FC01A080B180C501DFEFCFEF6501C00EF2
S1131620D11EC816D90698F0F70160817181FFD3E5
S1131630009769F09C012A193B090217130710F05F
S1131640D22FC32F0196EDCF8FEF9FEF02C08D2FC6
S11316509C2FDF91CF911F910F91FF90EF90DF901E
S1131660CF90BF90AF9008952F923F924F925F9288
S11316706F927F928F929F92AF92BF92CF92DF929E
S1131680EF92FF920F931F93CF93DF93FC0144805B
S113169055804114510409F4C3C0FB018480958032
S11316A08114910409F4BCC07A016B018C01FA0124
S11316B06480758068187908FC01C081D181611447
S11316C07104A9F4F60160817181CE01B0D3EC01FB
S11316D0009709F4A5C0F7016081718144815581A7
S11316E06ED3F70184819581C80FD91FEBCF77FEA4
S11316F040C05E01F60160817181C50198D32C015F
S1131700009711F14C018A189B08A401B501CE0180
S113171056D3C80DD91DF70160817181448155816B
S1131720CE014DD3F70184819581C80FD91FF601ED
S1131730A480B580A40CB51CF80184819581860D24
S1131740971D95838483D6CFB501CE01DF91CF91C8
S11317501F910F91FF90EF90DF90CF90BF90AF90CB
S11317609F908F907F906F905F904F903F902F90BD
S113177049C3FB01208031805201B101CE0157D30E
S1131780009731F0EC01C80DD91DA60CB71CF5CF9C
S1131790A414B50409F444C0F801828193818A1524
S11317A09B0528F4B501C80107DE8823C9F1F801B7
S11317B0448155814150510957FD32C0B601C801D9
S11317C006DFEC0197FD2CC0F60124813581280F3A
S11317D0391FF80180819181820F931F44815581C3
S11317E0421B530BBC01860D971DF2D2F801848174
S11317F09581860D971D9583848320813181F9011C
S1131800E80FF91F1082F80180819181F70160814E
S11318107181448155818C0F9D1FD1D2AE01CACFF5
S1131820DF91CF911F910F91FF90EF90DF90CF90B8
S1131830BF90AF909F908F907F906F905F904F90EC
S11318403F902F900895AF92BF92CF92DF92EF9284
S1131850FF920F931F93CF93DF93DC01CD90DC9025
S11318601197C114D10409F43CC01496CD91DC91B4
S113187015972097B1F18C0176015701BFEFAB1A90
S1131880BB0AF701808190E092D2892B11F0750197
S1131890F4CF2197CC0DDD1D888190E088D2892B6F
S11318A029F0CE15DF0510F02197F6CFAE014F5F7A
S11318B05F4F4E195F09D80115965C934E931497A8
S11318C0CE14DF0418F4B701C60179D2D801ED9122
S11318D0FC91119714968D919C911597E80FF91F1F
S11318E01082DF91CF911F910F91FF90EF90DF90C5
S11318F0CF90BF90AF900895FC01808191810097B3
S113190009F02FC260E070E0CB010895A1E21A2E25
S1131910AA1BBB1BFD010DC0AA1FBB1FEE1FFF1F8F
S1131920A217B307E407F50720F0A21BB30BE40BDF
S1131930F50B661F771F881F991F1A9469F7609526
S11319407095809590959B01AC01BD01CF010895E0
S1131950EE0FFF1F881F8BBF0790F691E02D19949F
S11319600F931F93CF93DF938230910510F482E09D
S113197090E0E0917803F091790320E030E0A0E07A
S1131980B0E0309719F140815181028113814817E9
S11319905907C8F08417950769F4109731F0129627
S11319A00C93129713961C9327C0009378031093FB
S11319B0790322C02115310519F04217530718F491
S11319C09A01BD01EF01DF01F801DBCF21153105DB
S11319D0F9F0281B390B2430310580F48A819B816E
S11319E06115710521F0FB019383828304C09093F8
S11319F0790380937803FE01329644C0FE01E20F1E
S1131A00F31F8193919322503109398328833AC07B
S1131A102091760330917703232B41F42091020225
S1131A2030910302309377032093760320910002D0
S1131A30309101022115310541F42DB73EB7409193
S1131A40040250910502241B350BE0917603F091BA
S1131A507703E217F307A0F42E1B3F0B281739076F
S1131A6078F0AC014E5F5F4F2417350748F04E0FF6
S1131A705F1F50937703409376038193919302C041
S1131A80E0E0F0E0CF01DF91CF911F910F91089535
S1131A90CF93DF93009709F481C0FC01329713823E
S1131AA01282A0917803B0917903109781F4208178
S1131AB03181820F931F2091760330917703281789
S1131AC0390751F5F0937703E093760367C0ED018E
S1131AD020E030E0CE17DF0740F44A815B819E01AD
S1131AE041155105F1F0EA01F5CFD383C28340815A
S1131AF05181840F951FC817D90759F4888199819A
S1131B00840F951F0296918380838A819B8193839E
S1131B1082832115310529F4F0937903E093780346
S1131B203DC0E901FB83EA8349915991C40FD51F54
S1131B30EC17FD0761F480819181840F951F029653
S1131B40E90199838883828193819B838A83E0E07E
S1131B50F0E012968D919C911397009719F0FD0176
S1131B60DC01F7CF8D919C9111979D012E5F3F4F22
S1131B70820F931F2091760330917703281739073A
S1131B8069F4309729F4109279031092780302C013
S1131B9013821282B0937703A0937603DF91CF91DF
S1131BA008956F927F928F929F92AF92BF92CF923D
S1131BB0DF92EF92FF920F931F93CF93DF930097DF
S1131BC081F4CB01DF91CF911F910F91FF90EF90A2
S1131BD0DF90CF90BF90AF909F908F907F906F9049
S1131BE0BFCEFC01E60FF71F9C0122503109E2171A
S1131BF0F30708F4A5C0EC01D9010D911C911197CC
S1131C0006171707A8F00530110508F497C0C80196
S1131C1004978617970708F491C002501109061B10
S1131C20170B019311936D937C93CF0131DF86C021
S1131C305B01A01AB10A4C01800E911EA091780399
S1131C40B0917903612C712CE12CF12C109709F4DB
S1131C5046C08D919C911197A815B905B1F56C01F9
S1131C6042E0C40ED11CCA14DB0478F14C018A187A
S1131C709B08640142E0C40ED11C1296BC901297DA
S1131C801396AC91B5E0CB16D10440F0B282A38395
S1131C9091828082D9016D937C9309C00E5F1F4F9E
S1131CA0800F911FF90191838083EB2DFA2FE114AA
S1131CB0F10431F0D7011396FC93EE9312973EC0D2
S1131CC0F0937903E093780339C06816790608F431
S1131CD03C017D0112960D90BC91A02DB7CF80914F
S1131CE076039091770388169906E1F466167706D1
S1131CF0C8F48091000290910102009741F48DB7DD
S1131D009EB74091040250910502841B950BE8177D
S1131D10F907B0F4F0937703E0937603F901718344
S1131D2060830CC0CB011CDE7C01009749F0A80144
S1131D30BE0145D0CE01ACDEC70104C0CE0102C055
S1131D4080E090E0DF91CF911F910F91FF90EF9091
S1131D50DF90CF90BF90AF909F908F907F906F90C7
S1131D6008951F93FC0199278827BC01E8941191D9
S1131D701032E9F3193010F01E30C8F31B3249F069
S1131D801D3241F4689405C06CD0610F711D811D32
S1131D90911D119110531A30B8F33EF4909580952B
S1131DA0709561957F4F8F4F9F4F1F9108959111AB
S1131DB098C2803219F089508550D0F70895FB01FC
S1131DC0DC0102C001900D9241505040D8F70895B3
S1131DD06817790768F4FB01DC01E40FF51FA40F11
S1131DE0B51F02C002900E9241505040D8F708959A
S1131DF0E6CFFB01DC018D91019080190110D9F32C
S1131E00990B0895FB01DC0101900D920020E1F78C
S1131E100895FB01DC014150504030F08D91019058
S1131E20801919F40020B9F7881B990B0895FB0158
S1131E3051915523A9F0BF01DC014D914517411182
S1131E40E1F759F4CD010190002049F04D9140157E
S1131E504111C9F3FB014111EFCF81E090E00197FB
S1131E600895592F482F372F262F660F771F881F65
S1131E70991F660F771F881F991F620F731F841F96
S1131E80951F660F771F881F991F08950F931F933F
S1131E90CF93DF93CDB7DEB72E970FB6F894DEBF9E
S1131EA00FBECDBF0E891F8986E08C831A830983F8
S1131EB08FEF9FE79E838D83AE01465E5F4F688DF3
S1131EC0798DCE01019610D0EF81F885E00FF11FD6
S1131ED010822E960FB6F894DEBF0FBECDBFDF91F1
S1131EE0CF911F910F9108952F923F924F925F923D
S1131EF06F927F928F929F92AF92BF92CF92DF9216
S1131F00EF92FF920F931F93CF93DF93CDB7DEB77A
S1131F102B970FB6F894DEBF0FBECDBF6C017B01CB
S1131F208A01FC0117821682838181FFBFC1CE0121
S1131F3001963C01F6019381F70193FD859193FF8E
S1131F4081917F01882309F4ADC1853239F493FD71
S1131F50859193FF81917F01853221F4B60190E050
S1131F60D9D1E8CF912C212C312CFFE1F315D8F0F5
S1131F708B3279F038F4803279F08332A1F4232D56
S1131F8020611DC08D3261F0803369F4232D2160FE
S1131F9016C0832D8260382EE32DE4603E2E2AC0C5
S1131FA0F32DF8601DC037FC2DC020ED280F2A301A
S1131FB040F08E32B9F436FC75C1232D2064322EE4
S1131FC019C036FE06C08AE0989E200D1124922E78
S1131FD011C0EAE02E9E200D1124222EF32DF06272
S1131FE03F2E08C08C3621F4832D8068382E02C021
S1131FF0883641F4F70193FD859193FF81917F0128
S11320008111B3CF982F9F7D9554933028F40C5FA2
S11320101F4F9FE399830DC0833631F0833771F0EE
S1132020833509F055C020C0F801808189830E5F93
S11320301F4F88248394912C530112C02801F2E08D
S11320404F0E511CF801A080B18036FE03C0692DEB
S113205070E002C06FEF7FEFC50151D14C018201E6
S1132060F32DFF773F2E15C0280122E0420E511CAC
S1132070F801A080B18036FE03C0692D70E002C073
S11320806FEF7FEFC50130D14C01F32DF0683F2E87
S1132090820133FC19C0822D90E088169906A0F4C1
S11320A0B60180E290E036D12A94F5CFF50137FCF1
S11320B0859137FE81915F01B60190E02BD121100B
S11320C02A9421E0821A91088114910479F7E1C0DD
S11320D0843611F0893639F5F80137FE07C060817E
S11320E07181828193810C5F1F4F08C0608171816F
S11320F0072E000C880B990B0E5F1F4FF32DFF76F4
S11321003F2E97FF09C090958095709561957F4FFC
S11321108F4F9F4FF0683F2E2AE030E0A30136D165
S1132120882E861844C0853731F4232D2F7EB22E95
S11321302AE030E025C0932D997FB92E8F36C1F067
S113214018F4883579F0AEC0803719F0883721F05B
S1132150A9C0E92FE061BE2EB4FE0DC0FB2DF460D2
S1132160BF2E09C034FE0AC0292F2660B22E06C035
S113217028E030E005C020E130E002C020E132E098
S1132180F801B7FE07C060817181828193810C5F81
S11321901F4F06C06081718180E090E00E5F1F4F89
S11321A0A301F4D0882E8618FB2DFF773F2E36FE30
S11321B00DC0232D2E7FA22E891458F434FE0BC09B
S11321C032FC09C0832D8E7EA82E05C0B82CA32C0A
S11321D003C0B82C01C0B92CA4FE0FC0FE01E80D49
S11321E0F11D8081803321F49A2D997EA92E09C096
S11321F0A2FE06C0B394B39404C08A2D867809F075
S1132200B394A3FC10C0A0FE06C0B21480F4280C42
S1132210922C9B180DC0B21458F4B60180E290E0E1
S113222079D0B394F8CFB21418F42B1802C0982CB8
S1132230212CA4FE0FC0B60180E390E06BD0A2FE77
S113224016C0A1FC03C088E790E002C088E590E0D6
S1132250B6010CC08A2D867851F0A1FE02C08BE233
S113226001C080E2A7FC8DE2B60190E053D089144E
S113227030F4B60180E390E04DD09A94F8CF8A947C
S1132280F301E80DF11D8081B60190E043D0811087
S1132290F6CF222009F44ECEB60180E290E03AD087
S11322A02A94F7CFF6018681978102C08FEF9FEFC2
S11322B02B960FB6F894DEBF0FBECDBFDF91CF9142
S11322C01F910F91FF90EF90DF90CF90BF90AF9050
S11322D09F908F907F906F905F904F903F902F9042
S11322E00895992788270895FC010590615070404E
S11322F00110D8F7809590958E0F9F1F0895FC01CB
S11323006150704001900110D8F7809590958E0F20
S11323109F1F08950F931F93CF93DF93FB01238196
S113232021FD03C08FEF9FEF2CC022FF16C0468112
S11323305781248135814217530744F4A081B18128
S11323409D012F5F3F4F318320838C9326813781FA
S11323502F5F3F4F3783268314C08B01EC01FB01B1
S11323600084F185E02D1995892BE1F6D8011696A4
S11323708D919C911797019617969C938E9316971F
S1132380CE01DF91CF911F910F910895FA01AA27F1
S1132390283051F1203181F1E8946F936E7F6E5FA4
S11323A07F4F8F4F9F4FAF4FB1E03ED0B4E03CD052
S11323B0670F781F891F9A1FA11D680F791F8A1F35
S11323C0911DA11D6A0F711D811D911DA11D20D09C
S11323D009F468943F912AE0269F11243019305D56
S11323E03193DEF6CF010895462F4770405D419347
S11323F0B3E00FD0C9F7F6CF462F4F70405D4A3394
S113240018F0495D31FD4052419302D0A9F7EACF5B
S1132410B4E0A6959795879577956795BA95C9F78A
S113242000976105710508959B01AC010A2E06947D
S11324305795479537952795BA95C9F7620F731F36
S1132440841F951FA01D089511E0CBE1D1E000E0A9
S113245005C0802FFE017CDA2196011DCC31D10705
S10D246080E00807B1F7F894FFCFFD
S113246A00007A03200001526561647900524F4FDB
S113247A4D5F4C49474854004C45445F524544001B
S113248A4C45445F5748495445004C45445F4752BC
S113249A45454E004D4F544F525F535045454400F5
S11324AA4C756D696E6F6369646164203D202564AF
S11324BA204C780054656D70657261747572612080
S11324CA3D2025642043656C736975730000000020
S11324DA00AC051C074005F80512052C051E050D60
S11124EA0A006E616E00696E66006F76660011
S9030000FC
