:100000000C94C9000C94FA000C94FA000C94FA00B9
:100010000C94FA000C94FA000C94FA000C94FA0078
:100020000C94FA000C94FA000C94FA000C94FA0068
:100030000C94FA000C94FA000C94FA000C94FA0058
:100040000C94FA000C94FA000C94FA000C94FA0048
:100050000C94FA000C94FA000C94FA000C949002A0
:100060000C94FA000C945A020C9430020C94FA008E
:100070000C94FA000C94FA000C94FA000C94FA0018
:100080000C94FA000C94FA000C94FA000C94FA0008
:100090000C94FA000C94FA000C94FA000C94FA00F8
:1000A0000C94FA000C94FA000C94FA000C94FA00E8
:1000B0000C94FA000C94FA000C94FA000C94FA00D8
:1000C0000C94FA000C94FA000C94FA000C94FA00C8
:1000D0000C94FA000C94FA000C94FA000C94FA00B8
:1000E0000C94FA000C9492010C945A010C944C015B
:1000F0000C9438010C9429010C94DA020C94DF0161
:100100000C94FC000505050507050808080802020F
:1001100002020A0A080804040404010101010101A1
:1001200001010303030303030303040707070C0C84
:100130000C0C0C0C0C0C020202020606060606064B
:1001400006060B0B0B0B0B0B0B0B010210202008F0
:100150000810204010204080020102010804020122
:100160000102040810204080804020100804020191
:1001700080040201804020100804020108040201EA
:100180000102040810204080010204081020408071
:10019000DA0211241FBECFEFD1E2DEBFCDBF00E0F7
:1001A0000CBF12E0A0E0B2E0ECEFF7E000E00BBF24
:1001B00002C007900D92A232B107D9F722E0A2E265
:1001C000B2E001C01D92AB3DB207E1F710E0C9EC0F
:1001D000D0E000E006C021970109802FFE010E94B7
:1001E000F403C83CD10780E00807A9F70E94260362
:1001F0000C94FC030C940000AF92BF92CF92DF925C
:10020000EF92FF920F931F93CF93DF936C017B01CB
:100210008B01040F151FEB015E01AE18BF08C0175C
:10022000D10759F06991D601ED91FC910190F081CF
:10023000E02DC6011995892B79F7C501DF91CF9182
:100240001F910F91FF90EF90DF90CF90BF90AF90F4
:100250000895FC01538D448D252F30E0842F90E0CC
:10026000821B930B541710F0CF96089501970895B1
:10027000FC01918D828D981761F0A28DAE0FBF2F7A
:10028000B11D5D968C91928D9F5F9F73928F90E0D0
:1002900008958FEF9FEF0895FC01918D828D98173F
:1002A00031F0828DE80FF11D858D90E008958FEF7C
:1002B0009FEF0895FC01918D228D892F90E0805C45
:1002C0009F4F821B91098F73992708958BE292E0CB
:1002D0000E945A0121E0892B09F420E0822F089521
:1002E000FC01A48DA80FB92FB11DA35ABF4F2C91AB
:1002F000848D90E001968F739927848FA689B789A2
:100300002C93A089B1898C91837080648C93938D98
:10031000848D981306C00288F389E02D80818F7D3B
:1003200080830895EF92FF920F931F93CF93DF93F3
:10033000EC0181E0888F9B8D8C8D98131AC0E88921
:10034000F989808185FF15C09FB7F894EE89FF89F0
:100350006083E889F98980818370806480839FBF8E
:1003600081E090E0DF91CF911F910F91FF90EF908E
:100370000895F62E0B8D10E00F5F1F4F0F7311279E
:10038000E02E8C8D8E110CC00FB607FCFACFE889D9
:10039000F989808185FFF5CFCE010E947001F1CFF0
:1003A000EB8DEC0FFD2FF11DE35AFF4FF0829FB74D
:1003B000F8940B8FEA89FB8980818062CFCFCF933D
:1003C000DF93EC01888D8823B9F0AA89BB89E8897D
:1003D000F9898C9185FD03C0808186FD0DC00FB623
:1003E00007FCF7CF8C9185FFF2CF808185FFEDCFA1
:1003F000CE010E947001E9CFDF91CF91089580E096
:1004000090E0892B29F00E94660181110E94000072
:1004100080E090E0892B49F080E090E0892B29F082
:100420000E94000081110E94000080E090E0892B72
:1004300049F080E090E0892B29F00E9400008111B2
:100440000E94000080E090E0892B49F080E090E07D
:10045000892B29F00E94000081110C94000008955E
:100460001F920F920FB60F9211240BB60F922F937B
:100470003F934F935F936F937F938F939F93AF932C
:10048000BF93EF93FF938BE292E00E947001FF9184
:10049000EF91BF91AF919F918F917F916F915F91FC
:1004A0004F913F912F910F900BBE0F900FBE0F9069
:1004B0001F9018951F920F920FB60F9211240BB632
:1004C0000F922F938F939F93EF93FF93E0913B02B3
:1004D000F0913C028081E0914102F091420282FD64
:1004E0001DC09081809144028F5F8F7320914502DF
:1004F000821741F0E0914402F0E0E55DFD4F958FF9
:1005000080934402FF91EF919F918F912F910F90D3
:100510000BBE0F900FBE0F901F9018958081F2CFE9
:100520001F920F920FB60F9211242F933F938F9328
:100530009F93AF93BF938091270290912802A0913F
:100540002902B0912A023091260223E0230F2D3791
:1005500058F50196A11DB11D209326028093270214
:1005600090932802A0932902B0932A02809122023C
:1005700090912302A0912402B09125020196A11D21
:10058000B11D8093220290932302A0932402B09382
:100590002502BF91AF919F918F913F912F910F9025
:1005A0000FBE0F901F90189526E8230F0296A11DED
:1005B000B11DD2CFEBE2F2E01382128288EE93E01B
:1005C000A0E0B0E084839583A683B78384E092E0C3
:1005D0009183808385EC90E09587848784EC90E01C
:1005E0009787868780EC90E0918B808B81EC90E000
:1005F000938B828B82EC90E0958B848B86EC90E0E1
:10060000978B868B118E128E138E148EA8ECB2E00F
:1006100086E115968C93159716968C931697E0E6BF
:10062000F1E0E4911796EC931797EAE1F1E0E49199
:100630001896EC93189740E85EE360E070E01D9632
:100640004D935D936D937C9350970895789484B502
:10065000826084BD84B5816084BD85B5826085BDBE
:1006600085B5816085BD80916E00816080936E004C
:10067000109281008091810082608093810080913E
:1006800081008160809381008091800081608093EF
:1006900080008091B10084608093B1008091B000AF
:1006A00081608093B000809191008260809391007E
:1006B0008091910081608093910080919000816091
:1006C000809390008091A10082608093A10080912E
:1006D000A10081608093A1008091A000816080933F
:1006E000A0008091210182608093210180912101ED
:1006F000816080932101809120018160809320019D
:1007000080917A00846080937A0080917A00826080
:1007100080937A0080917A00816080937A00809142
:100720007A00806880937A001092C10080E822E00D
:1007300030E00FB6F89480936100209361000FBE03
:10074000E0913B02F0913C0282E08083E09137022D
:10075000F09138021082E0913902F0913A0283E37D
:10076000808310924302E0913F02F091400286E0C4
:100770008083E0913D02F0913E0280818061808320
:10078000E0913D02F0913E02808188608083E0919B
:100790003D02F0913E02808180688083E0913D02BD
:1007A000F0913E0280818F7D808381E081B982B9A2
:1007B0004BE050E062E172E08BE292E00E94FC00CC
:1007C00042E050E06EE172E08BE292E00E94FC00B9
:1007D0002FEF83ED90E3215080409040E1F700C07F
:1007E00000000E94FF01E4CFEE0FFF1F881F8BBFA8
:0C07F0000790F691E02D1994F894FFCFCB
:1007FC00000000009201FC002901DF015A013801C0
:10080C004C0148656C6C6F20776F726C64000D0A3C
:02081C000000DA
:00000001FF
